:100000000C9434000C9482020C94A9020C94D0023B
:100010000C94F7020C941E030C9445030C946C038F
:100020000C9493030C94BA030C94E1030C9408040D
:100030000C942F040C9456040C947D040C94A4048A
:100040000C94CB040C94F2040C9419050C94400508
:100050000C9467050C948E050C94B5050C94DC0586
:100060000C9403060C942A0611241FBECFEFD8E08F
:10007000DEBFCDBF11E0A0E0B1E0E4EEF9E102C0E7
:1000800005900D92A832B107D9F711E0A8E2B1E0CE
:1000900001C01D92A737B107E1F70E9451060C94E9
:1000A000F00C0C940000FC01009709F45EC081E0A4
:1000B000809328018281882321F08F3F09F057C067
:1000C0002CC08081823089F08330D9F0813009F0F2
:1000D00050C094B181818095892384B98091290190
:1000E0008E5F8093290180E0089597B1818180958A
:1000F000892387B9809129018D5F8093290180E050
:1001000008959AB18181809589238AB980912901C6
:100110008C5F8093290180E008958081823079F09E
:100120008330C1F0813039F594B18181892B84B954
:10013000809129018E5F8093290180E0089597B115
:100140008181892B87B9809129018D5F8093290155
:1001500080E008959AB18181892B8AB98091290123
:100160008C5F8093290180E0089586E1089583E201
:10017000089585E2089585E2089510922801089572
:1001800081E080932801089590912801913091F5A4
:10019000442319F04F3F81F518C0823051F083306D
:1001A00071F0813059F585B16095682365B984E1B6
:1001B000089588B16095682368B984E108958BB18A
:1001C000609568236BB984E10895823049F08330EB
:1001D00061F08130A9F485B1682B65B984E1089597
:1001E00088B1682B68B984E108958BB1682B6BB92D
:1001F00084E1089588E1089586E2089584E20895EF
:1002000084E2089590912801913001F5823051F0F7
:10021000833071F0813091F483B16823FA016083F7
:1002200084E10DC086B16823FA01608384E107C0D0
:1002300089B16823FA01608384E101C084E2FA0194
:100240009081992321F091E09083089588E10895A9
:10025000909128019130A9F4823049F0833061F007
:10026000813089F485B1682765B984E1089588B142
:10027000682768B984E108958BB168276BB984E178
:10028000089588E1089584E208950E94170B0E9462
:1002900056060E94D8070895CF93DF9300D0CDB7BC
:1002A000DEB71A8219820E94340BCE0101960E9499
:1002B0004D0B86E00E945F0686E00E94DD070F90EE
:1002C0000F90DF91CF910895CF93DF93EC010E94BF
:1002D00063028881882319F0813091F409C00E945B
:1002E00073028A819B8190931A018093190108C03F
:1002F0000E9467028A819B819093720180937101B1
:100300008981813061F485E08093810081E0809370
:100310006F008C819D81909316018093150180E080
:10032000DF91CF9108950F931F93813029F4E1E875
:10033000F0E0808185608083613001F1613018F0E8
:100340006230D1F52AC080912E0190912F01A091A9
:100350003001B091310100912A0110912B012091BF
:100360002C0130912D01800F911FA21FB31FFA01A4
:1003700080839183A283B38380E01FC080912E018C
:1003800090912F01A0913001B0913101FA01808349
:100390009183A283B38380E010C080912A01909161
:1003A0002B01A0912C01B0912D01FA018083918342
:1003B000A283B38380E001C081E01F910F91089573
:1003C0008091840090918500A0E0B0E080933B0193
:1003D00090933C01A0933D01B0933E0110923A01ED
:1003E0008091690080FF37C080916900869580FF09
:1003F00032C080913B0190913C01A0913D01B091B0
:100400003E018093360190933701A0933801B09359
:1004100039018091360190913701A0913801B09156
:100420003901409132015091330160913401709152
:100430003501841B950BA60BB70B80932A01909373
:100440002B01A0932C01B0932D01E9E6F0E080810F
:100450008E7F8083089580913B0190913C01A09113
:100460003D01B0913E018093320190933301A093FE
:100470003401B09335018091320190913301A09104
:100480003401B091350140913601509137016091AE
:10049000380170913901841B950BA60BB70B809323
:1004A0002E0190932F01A0933001B0933101E9E622
:1004B000F0E0808181608083089581E080933A013B
:1004C0000E94340B08958FB780688FBF08955398AA
:1004D0005B9AE99AE9E6F0E080818460808380811C
:1004E0008860808308955298E89AE9E6F0E0808178
:1004F0008160808380818260808308958FB78F7749
:100500008FBF08951F920F920FB60F9211242F9351
:100510003F934F935F936F937F938F939F93AF938B
:10052000BF93EF93FF93E0911901F0911A010995A0
:10053000FF91EF91BF91AF919F918F917F916F91BB
:100540005F914F913F912F910F900FBE0F901F9091
:1005500018951F920F920FB60F9211242F933F936D
:100560004F935F936F937F938F939F93AF93BF93BB
:10057000EF93FF93E0917101F09172010995FF9162
:10058000EF91BF91AF919F918F917F916F915F910B
:100590004F913F912F910F900FBE0F901F90189584
:1005A0001F920F920FB60F9211242F933F934F93E8
:1005B0005F936F937F938F939F93AF93BF93EF93CB
:1005C000FF93E0915701F09158010995FF91EF9148
:1005D000BF91AF919F918F917F916F915F914F915B
:1005E0003F912F910F900FBE0F901F9018951F9263
:1005F0000F920FB60F9211242F933F934F935F9357
:100600006F937F938F939F93AF93BF93EF93FF93DA
:10061000E0916B01F0916C010995FF91EF91BF9111
:10062000AF919F918F917F916F915F914F913F918A
:100630002F910F900FBE0F901F9018951F920F9241
:100640000FB60F9211242F933F934F935F936F93A5
:100650007F938F939F93AF93BF93EF93FF93E0911B
:100660005D01F0915E010995FF91EF91BF91AF910E
:100670009F918F917F916F915F914F913F912F91BA
:100680000F900FBE0F901F9018951F920F920FB6EC
:100690000F9211242F933F934F935F936F937F9308
:1006A0008F939F93AF93BF93EF93FF93E0914F018D
:1006B000F09150010995FF91EF91BF91AF919F91FA
:1006C0008F917F916F915F914F913F912F910F90FB
:1006D0000FBE0F901F9018951F920F920FB60F929A
:1006E00011242F933F934F935F936F937F938F9337
:1006F0009F93AF93BF93EF93FF93E0916901F091C4
:100700006A010995FF91EF91BF91AF919F918F91F0
:100710007F916F915F914F913F912F910F900FBEFD
:100720000F901F9018951F920F920FB60F921124E1
:100730002F933F934F935F936F937F938F939F93E9
:10074000AF93BF93EF93FF93E0915901F0915A015A
:100750000995FF91EF91BF91AF919F918F917F91FB
:100760006F915F914F913F912F910F900FBE0F901E
:100770001F9018951F920F920FB60F9211242F936E
:100780003F934F935F936F937F938F939F93AF9319
:10079000BF93EF93FF93E0911701F0911801099532
:1007A000FF91EF91BF91AF919F918F917F916F9149
:1007B0005F914F913F912F910F900FBE0F901F901F
:1007C00018951F920F920FB60F9211242F933F93FB
:1007D0004F935F936F937F938F939F93AF93BF9349
:1007E000EF93FF93E0917501F09176010995FF91E8
:1007F000EF91BF91AF919F918F917F916F915F9199
:100800004F913F912F910F900FBE0F901F90189511
:100810001F920F920FB60F9211242F933F934F9375
:100820005F936F937F938F939F93AF93BF93EF9358
:10083000FF93E0915501F09156010995FF91EF91D9
:10084000BF91AF919F918F917F916F915F914F91E8
:100850003F912F910F900FBE0F901F9018951F92F0
:100860000F920FB60F9211242F933F934F935F93E4
:100870006F937F938F939F93AF93BF93EF93FF9368
:10088000E0915301F09154010995FF91EF91BF91CF
:10089000AF919F918F917F916F915F914F913F9118
:1008A0002F910F900FBE0F901F9018951F920F92CF
:1008B0000FB60F9211242F933F934F935F936F9333
:1008C0007F938F939F93AF93BF93EF93FF93E091A9
:1008D0001501F09116010995FF91EF91BF91AF912C
:1008E0009F918F917F916F915F914F913F912F9148
:1008F0000F900FBE0F901F9018951F920F920FB67A
:100900000F9211242F933F934F935F936F937F9395
:100910008F939F93AF93BF93EF93FF93E0917301F6
:10092000F09174010995FF91EF91BF91AF919F9163
:100930008F917F916F915F914F913F912F910F9088
:100940000FBE0F901F9018951F920F920FB60F9227
:1009500011242F933F934F935F936F937F938F93C4
:100960009F93AF93BF93EF93FF93E0916301F09157
:1009700064010995FF91EF91BF91AF919F918F9184
:100980007F916F915F914F913F912F910F900FBE8B
:100990000F901F9018951F920F920FB60F9211246F
:1009A0002F933F934F935F936F937F938F939F9377
:1009B000AF93BF93EF93FF93E0915F01F0916001DC
:1009C0000995FF91EF91BF91AF919F918F917F9189
:1009D0006F915F914F913F912F910F900FBE0F90AC
:1009E0001F9018951F920F920FB60F9211242F93FC
:1009F0003F934F935F936F937F938F939F93AF93A7
:100A0000BF93EF93FF93E0915B01F0915C01099537
:100A1000FF91EF91BF91AF919F918F917F916F91D6
:100A20005F914F913F912F910F900FBE0F901F90AC
:100A300018951F920F920FB60F9211242F933F9388
:100A40004F935F936F937F938F939F93AF93BF93D6
:100A5000EF93FF93E0914D01F0914E010995FF91C5
:100A6000EF91BF91AF919F918F917F916F915F9126
:100A70004F913F912F910F900FBE0F901F9018959F
:100A80001F920F920FB60F9211242F933F934F9303
:100A90005F936F937F938F939F93AF93BF93EF93E6
:100AA000FF93E0916F01F09170010995FF91EF9133
:100AB000BF91AF919F918F917F916F915F914F9176
:100AC0003F912F910F900FBE0F901F9018951F927E
:100AD0000F920FB60F9211242F933F934F935F9372
:100AE0006F937F938F939F93AF93BF93EF93FF93F6
:100AF000E0916D01F0916E010995FF91EF91BF9129
:100B0000AF919F918F917F916F915F914F913F91A5
:100B10002F910F900FBE0F901F9018951F920F925C
:100B20000FB60F9211242F933F934F935F936F93C0
:100B30007F938F939F93AF93BF93EF93FF93E09136
:100B40006501F09166010995FF91EF91BF91AF9119
:100B50009F918F917F916F915F914F913F912F91D5
:100B60000F900FBE0F901F9018951F920F920FB607
:100B70000F9211242F933F934F935F936F937F9323
:100B80008F939F93AF93BF93EF93FF93E091670190
:100B9000F09168010995FF91EF91BF91AF919F91FD
:100BA0008F917F916F915F914F913F912F910F9016
:100BB0000FBE0F901F9018951F920F920FB60F92B5
:100BC00011242F933F934F935F936F937F938F9352
:100BD0009F93AF93BF93EF93FF93E0916101F091E7
:100BE00062010995FF91EF91BF91AF919F918F9114
:100BF0007F916F915F914F913F912F910F900FBE19
:100C00000F901F9018951F920F920FB60F921124FC
:100C10002F933F934F935F936F937F938F939F9304
:100C2000AF93BF93EF93FF93E0914B01F0914C0191
:100C30000995FF91EF91BF91AF919F918F917F9116
:100C40006F915F914F913F912F910F900FBE0F9039
:100C50001F9018951F920F920FB60F9211242F9389
:100C60003F934F935F936F937F938F939F93AF9334
:100C7000BF93EF93FF93E0915101F09152010995D9
:100C8000FF91EF91BF91AF919F918F917F916F9164
:100C90005F914F913F912F910F900FBE0F901F903A
:100CA00018950E9445010E944C01FDCF80E091E023
:100CB0000E9453008DE191E00E94D7060895833091
:100CC000C1F1843028F48130B1F0823018F509C0C8
:100CD000853009F44CC08530D8F1863009F065C004
:100CE00055C080E00E94B50783E060E840E00E94C4
:100CF000C40080E0089583E060E84FEF0E94C400E4
:100D000080E06AE02AE030E040E050E00E94E50642
:100D100080E0089583E060E84FEF0E94C40080E027
:100D200064E12AE030E040E050E00E94E50680E027
:100D3000089583E060E84FEF0E94C40080E06EE118
:100D40002AE030E040E050E00E94E50680E00895AF
:100D500083E060E84FEF0E94C40080E062E32AE095
:100D600030E040E050E00E94E50680E0089583E036
:100D700060E84FEF0E94C40080E066E42AE030E0C3
:100D800040E050E00E94E50680E0089583E060E8DE
:100D90004FEF0E94C40080E06AE52AE030E040E0C6
:100DA00050E00E94E50680E0089581E00895FC018E
:100DB0008081882329F484B595B5836895BD84BD69
:100DC000818180933F0180E008950F931F93962FB8
:100DD000BA01A9018A019B0102551F402040304001
:100DE0000B33EBE61E07E0E02E07E0E03E0718F4C9
:100DF00010923F0164C08A019B01055D13402040B1
:100E000030400D37EBE01E07E0E02E07E0E03E0744
:100E100020F421E020933F0158C08A019B010B5E22
:100E20001140204030400A3EE1E01E07E0E02E077E
:100E3000E0E03E0720F422E020933F014CC08A010D
:100E40009B010B571040204030400037E1E01E0767
:100E5000E0E02E07E0E03E0720F423E020933F018E
:100E600045C08A019B0100521040204030400B35A4
:100E700011052105310520F424E020933F013CC0F9
:100E800041505040604070404F315105610571053F
:100E900020F425E020933F0135C020913F0122300E
:100EA000D1F0233028F4222351F0213089F50DC0F0
:100EB000243011F12430D0F0253051F523C088239F
:100EC00039F585B5816085BD25C0882309F585B5CF
:100ED000826085BD1FC08330D9F4E0EBF0E08081F3
:100EE000918183609183808381E02FC0882381F486
:100EF00085B5836085BD0EC0882351F485B58360B8
:100F000085BD08C0882321F485B5856085BD02C0F4
:100F10008823D1F4692F70E080E090E00E94FF0BFD
:100F200020E030E048EC52E40E946B0B20E030E01F
:100F30004FE753E40E948D0C0E94D30BDC01CB01E0
:100F400098BD87BD80E001C081E091E090934001B1
:100F50001F910F91089590914001913021F40E94CA
:100F6000E50680E0089581E00895833018F481302B
:100F700060F403C08330D1F40FC084B595B5887F89
:100F8000907095BD84BD80E0089584B595B5987F37
:100F900095BD84BD80E00895E0EBF0E08081918113
:100FA000887F90709183808380E0089581E0089528
:100FB00083E091E00E94530008958330E1F1843092
:100FC00028F48130A1F0823020F50AC0853009F480
:100FD00053C0853008F440C0863009F06DC05CC055
:100FE00082E068E040E00E94C40080E008958091C3
:100FF00041019091420123E0883E920709F05EC0D2
:10100000109242011092410183E062E00E942801A7
:101010000895809141019091420121E0843F92071F
:1010200009F04EC0109242011092410183E062E04B
:101030000E942801089580914101909142018A3FC8
:10104000910509F03FC0109242011092410183E0E6
:1010500062E00E942801089580914101909142012F
:101060008D37910589F5109242011092410183E07C
:1010700062E00E942801089580914101909142010F
:101080008B34910519F5109242011092410183E0D1
:1010900062E00E94280108958091410190914201EF
:1010A00089319105A9F4109242011092410183E027
:1010B00062E00E942801089581E0089580E008958B
:1010C00080E0089580E0089580E0089580E008952C
:1010D00080E0089586BD089586B5089584B595B5D8
:1010E000887F907095BD84BD24B535B580914A0147
:1010F00090E0822B932B95BD84BD089584B595B562
:10110000887F907095BD84BD0895EF920F931F93D3
:10111000442319F40E947E085DC0E4B5F5B5842B24
:1011200090E08E2B9F2B95BD84BD40934A0126BD38
:10113000603189F0613118F4662331F01DC06032EE
:1011400081F06033C9F413C084B595B58F7C90707D
:1011500095BD84BD11C084B595B5806195BD84BD34
:101160000BC084B595B5806295BD84BD05C084B5BE
:1011700095B5806395BD84BD10E018BD07BD81E0C5
:10118000E81679F0E81620F082E0E81619F514C0A8
:10119000109249010E947E02EEE6F0E0808110820A
:1011A00019C081E0809349010E946302EEE6F0E0FD
:1011B0008081816080830EC081E0809349018FB778
:1011C00080688FBFEEE6F0E080818160808380815F
:1011D000826080831F910F91EF900895AC0160E0D1
:1011E00070E0411551056105710571F080E090E0F6
:1011F000DC01A89BFECFA89A0196A11DB11D841702
:101200009507A607B707A8F30895DC01CB0100975F
:10121000A105B10531F080EF0E946A080E946C08B8
:10122000FDCFA89A0895CF92DF92EF92FF92CF93CD
:10123000C82F8FEF809345016091450170E080E0F9
:1012400090E00E94FF0B6B017C016C2F70E080E04E
:1012500090E00E94FF0B20E030E048EC52E40E9456
:101260006B0B9B01AC01C701B6010E948D0C0E9463
:10127000D30B6093450180914901882319F0813097
:1012800009F519C00E946E08809145010E946A0804
:10129000A89BFECFA89A88B18FEF88B90E946E08EC
:1012A0008091450180950E946A08A89BFECFA89A6C
:1012B00088B118B807C00E946E088091450190E07F
:1012C00098BD87BDCF91FF90EF90DF90CF900895AC
:1012D0008BB180958BB9089590938500809384009D
:1012E000089580918400909185000895E1E8F0E0F0
:1012F000908180914601892B80830895E1E8F0E098
:101300008081887F8083089508950895089580934B
:10131000B20008958091B2000895E1EBF0E0808181
:10132000887F8083908180914701892B80830895F5
:10133000E1EBF0E08081887F80830895CF920F9366
:101340001F93442319F40E9498095EC0E0EBF0E07B
:101350009081892B8083E1EBF0E08081842B808376
:10136000409347012093B200603481F0613418F457
:10137000662331F01CC0603879F0603AC1F412C0C5
:10138000E1EBF0E080818C7F808311C0E0EBF0E046
:101390008081806480830BC0E0EBF0E08081806816
:1013A000808305C0E0EBF0E08081806A808310E0FC
:1013B0001093B4000093B30081E0C81669F0C8161A
:1013C00020F083E0C81601F512C010924801E0E752
:1013D000F0E08081108218C081E0809348010E9473
:1013E0006302E0E7F0E08081816080830DC081E0EE
:1013F000809348010E946302E0E7F0E08081816011
:1014000080838081836080831F910F91CF900895A6
:101410000F931F93CF93DF9300D000D0CDB7DEB7EB
:101420008C011A8219821B821C82809147018430B0
:10143000F9F0853038F4823089F08330A0F48130BF
:1014400051F507C08630F1F08630B8F0873019F5D5
:101450001EC08AE38B838AE08C831DC088E08B8367
:101460008CE08C8318C082E08B8388E08C8313C06F
:1014700081E08B8386E08C830EC081E08B8383E8E0
:101480008C8309C081E08B8382EC8C8304C081E073
:101490008B8380EF8C831A8219822B8149815A8138
:1014A00030E0029FC001039F900D129F900D112408
:1014B00048175907C8F48C810E948709B89BFECF52
:1014C000B89A89819A8101969A8389832B8149816F
:1014D0005A8130E0029FC001039F900D129F900D32
:1014E00011244817590738F30F900F900F900F9061
:1014F000DF91CF911F910F910895CF92DF92EF92DC
:10150000FF92CF93DF9300D0CDB7DEB76B017C01A4
:101510001A8219821A82198289819A81A0E0B0E028
:101520008C159D05AE05BF05A0F48EEF0E948709BE
:10153000B89BFECFB89A89819A8101969A83898354
:1015400089819A81A0E0B0E08C159D05AE05BF05AC
:1015500060F30F900F90DF91CF91FF90EF90DF90AD
:10156000CF900895CF92DF92EF92FF92CF93C82F42
:101570008FEF809345016091450170E080E090E03D
:101580000E94FF0B6B017C016C2F70E080E090E00B
:101590000E94FF0B20E030E048EC52E40E946B0B0D
:1015A0009B01AC01C701B6010E948D0C0E94D30BB8
:1015B0006093450180914801882319F0813019F525
:1015C00019C00E948D09809145010E948709B89B2E
:1015D000FECFB89A88B18FEF88B90E948D098091AB
:1015E000450180950E948709B89BFECFB89A88B1C3
:1015F00018B809C00E948D098091450190E0909330
:10160000B4008093B300CF91FF90EF90DF90CF9024
:101610000895089581E08093430180914101909164
:101620004201019690934201809341010895CF9227
:10163000EF920F93CF9384E291E00E9453008FE0EA
:1016400091E00E946401C82F80E060E247E020E062
:1016500000E0EE24CC24C3940E949E098C2FCF91ED
:101660000F91EF90CF90089580914301882399F0D6
:101670001092430183E090E062E070E00E94280154
:1016800082E390E00197F1F783E090E062E070E0A0
:101690000E942801089580E008950F931F93CF932F
:1016A000DF9300D000D0CDB7DEB78C0182E061E0DF
:1016B000AE014F5F5F4F0E94930129813A81F8018B
:1016C000318320830F900F900F900F90DF91CF9177
:1016D0001F910F9108950CD0E6C0DED040F0D5D018
:1016E00030F021F45F3F19F0C7C0511110C1CAC0DA
:1016F000EBD098F39923C9F35523B1F3951B550B00
:10170000BB27AA2762177307840738F09F5F5F4FD4
:10171000220F331F441FAA1FA9F333D00E2E3AF015
:10172000E0E830D091505040E695001CCAF729D02F
:10173000FE2F27D0660F771F881FBB1F261737077E
:101740004807AB07B0E809F0BB0B802DBF01FF27AE
:1017500093585F4F2AF09E3F510568F08DC0D7C067
:101760005F3FECF3983EDCF3869577956795B795E8
:10177000F7959F5FC9F7880F911D9695879597F903
:101780000895E1E0660F771F881FBB1F621773077C
:101790008407BA0720F0621B730B840BBA0BEE1F91
:1017A00088F7E095089598D088F09F5790F0B92F6A
:1017B0009927B751A0F0D1F0660F771F881F991FA6
:1017C0001AF0BA95C9F712C0B13081F09FD0B1E0DC
:1017D00008959CC0672F782F8827B85F39F0B93FEC
:1017E000CCF3869577956795B395D9F73EF49095A8
:1017F0008095709561957F4F8F4F9F4F0895E89426
:1018000009C097FB3EF490958095709561957F4F48
:101810008F4F9F4F9923A9F0F92F96E9BB279395F6
:10182000F695879577956795B795F111F8CFFAF406
:10183000BB0F11F460FF1BC06F5F7F4F8F4F9F4F37
:1018400016C0882311F096E911C0772321F09EE895
:10185000872F762F05C0662371F096E8862F70E0FB
:1018600060E02AF09A95660F771F881FDAF7880FD5
:101870009695879597F9089597F99F6780E870E0A6
:1018800060E008959FEF80EC089500240A941616F6
:10189000170618060906089500240A94121613065E
:1018A000140605060895092E0394000C11F48823EC
:1018B00052F0BB0F40F4BF2B11F460FF04C06F5F08
:1018C0007F4F8F4F9F4F089557FD9058440F551FDE
:1018D00059F05F3F71F04795880F97FB991F61F0B2
:1018E0009F3F79F087950895121613061406551F29
:1018F000F2CF4695F1DF08C0161617061806991F95
:10190000F1CF86957105610508940895E894BB2789
:1019100066277727CB0197F908950BD0C4CFB5DFA1
:1019200028F0BADF18F0952309F0A6CFABCF112429
:10193000EECFCADFA0F3959FD1F3950F50E0551F6E
:10194000629FF001729FBB27F00DB11D639FAA2714
:10195000F00DB11DAA1F649F6627B00DA11D661F63
:10196000829F2227B00DA11D621F739FB00DA11D84
:10197000621F839FA00D611D221F749F3327A00D3E
:10198000611D231F849F600D211D822F762F6A2FDA
:1019900011249F5750408AF0E1F088234AF0EE0F5F
:1019A000FF1FBB1F661F771F881F91505040A9F76C
:1019B0009E3F510570F060CFAACF5F3FECF3983E99
:1019C000DCF3869577956795B795F795E7959F5FD3
:1019D000C1F7FE2B880F911D9695879597F908956D
:0419E000F894FFCFA9
:1019E4000380FF0208FF0340FF02FFFF01FFFF0027
:1019F40001E0015D025D020A0BE00103050005023E
:081A0400050105010302FF00CA
:00000001FF
