:100000000C9434000C9463020C948A020C94B10298
:100010000C94D8020C94FF020C9426030C944D030C
:100020000C9474030C949B030C94C2030C94E9038A
:100030000C9410040C9437040C945E040C94850406
:100040000C94AC040C94D3040C94FA040C94210585
:100050000C9448050C946F050C9496050C94BD0502
:100060000C94E4050C940B0611241FBECFEFD8E0CE
:10007000DEBFCDBF11E0A0E0B1E0E2EAF7E102C0EF
:1000800005900D92A232B107D9F711E0A2E2B1E0DA
:1000900001C01D92A337B107E1F70E9432060C940C
:1000A000CF0B0C940000FC01009709F45EC081E0C6
:1000B000809322018281882321F08F3F09F057C06D
:1000C0002CC08081823089F08330D9F0813009F0F2
:1000D00050C094B181818095892384B98091230196
:1000E0008E5F8093230180E0089597B18181809590
:1000F000892387B9809123018D5F8093230180E05C
:1001000008959AB18181809589238AB980912301CC
:100110008C5F8093230180E008958081823079F0A4
:100120008330C1F0813039F594B18181892B84B954
:10013000809123018E5F8093230180E0089597B121
:100140008181892B87B9809123018D5F8093230161
:1001500080E008959AB18181892B8AB98091230129
:100160008C5F8093230180E0089586E1089583E207
:10017000089585E2089585E2089510922201089578
:1001800081E080932201089590912201913091F5B0
:10019000442319F04F3F81F518C0823051F083306D
:1001A00071F0813059F585B16095682365B984E1B6
:1001B000089588B16095682368B984E108958BB18A
:1001C000609568236BB984E10895823049F08330EB
:1001D00061F08130A9F485B1682B65B984E1089597
:1001E00088B1682B68B984E108958BB1682B6BB92D
:1001F00084E1089588E1089586E2089584E20895EF
:1002000084E2089590912201913001F5823051F0FD
:10021000833071F0813091F483B16823FA016083F7
:1002200084E10DC086B16823FA01608384E107C0D0
:1002300089B16823FA01608384E101C084E2FA0194
:100240009081992321F091E09083089588E10895A9
:10025000909122019130A9F4823049F0833061F00D
:10026000813089F485B1682765B984E1089588B142
:10027000682768B984E108958BB168276BB984E178
:10028000089588E1089584E20895CF93DF93EC0107
:100290000E9444028881882319F0813091F409C0BA
:1002A0000E9454028A819B819093140180931301D0
:1002B00008C00E9448028A819B8190936E018093BE
:1002C0006D018981813061F485E08093810081E056
:1002D00080936F008C819D819093100180930F011A
:1002E00080E0DF91CF9108950F931F93813029F41F
:1002F000E1E8F0E0808185608083613001F1613068
:1003000018F06230D1F52AC080912801909129011E
:10031000A0912A01B0912B01009124011091250197
:100320002091260130912701800F911FA21FB31F3A
:10033000FA0180839183A283B38380E01FC0809100
:10034000280190912901A0912A01B0912B01FA0175
:1003500080839183A283B38380E010C080912401C5
:1003600090912501A0912601B0912701FA01808387
:100370009183A283B38380E001C081E01F910F913C
:1003800008958091840090918500A0E0B0E0809372
:10039000350190933601A0933701B0933801109244
:1003A00034018091690080FF37C080916900869593
:1003B00080FF32C08091350190913601A0913701C4
:1003C000B09138018093300190933101A0933201B4
:1003D000B09333018091300190913101A0913201AD
:1003E000B091330140912C0150912D0160912E016B
:1003F00070912F01841B950BA60BB70B80932401E2
:1004000090932501A0932601B0932701E9E6F0E03F
:1004100080818E7F8083089580913501909136018F
:10042000A0913701B091380180932C0190932D0158
:10043000A0932E01B0932F0180912C0190912D015A
:10044000A0912E01B0912F014091300150913101C6
:100450006091320170913301841B950BA60BB70B91
:100460008093280190932901A0932A01B0932B0136
:10047000E9E6F0E0808181608083089581E08093E7
:1004800034010E94130A08958FB780688FBF0895C2
:1004900053985B9AE99AE9E6F0E080818460808372
:1004A00080818860808308955298E89AE9E6F0E0B8
:1004B00080818160808380818260808308958FB78E
:1004C0008F778FBF08951F920F920FB60F9211244E
:1004D0002F933F934F935F936F937F938F939F934C
:1004E000AF93BF93EF93FF93E0911301F091140149
:1004F0000995FF91EF91BF91AF919F918F917F915E
:100500006F915F914F913F912F910F900FBE0F9080
:100510001F9018951F920F920FB60F9211242F93D0
:100520003F934F935F936F937F938F939F93AF937B
:10053000BF93EF93FF93E0916D01F0916E010995E8
:10054000FF91EF91BF91AF919F918F917F916F91AB
:100550005F914F913F912F910F900FBE0F901F9081
:1005600018951F920F920FB60F9211242F933F935D
:100570004F935F936F937F938F939F93AF93BF93AB
:10058000EF93FF93E0915301F09154010995FF918E
:10059000EF91BF91AF919F918F917F916F915F91FB
:1005A0004F913F912F910F900FBE0F901F90189574
:1005B0001F920F920FB60F9211242F933F934F93D8
:1005C0005F936F937F938F939F93AF93BF93EF93BB
:1005D000FF93E0916701F09168010995FF91EF9118
:1005E000BF91AF919F918F917F916F915F914F914B
:1005F0003F912F910F900FBE0F901F9018951F9253
:100600000F920FB60F9211242F933F934F935F9346
:100610006F937F938F939F93AF93BF93EF93FF93CA
:10062000E0915901F0915A010995FF91EF91BF9125
:10063000AF919F918F917F916F915F914F913F917A
:100640002F910F900FBE0F901F9018951F920F9231
:100650000FB60F9211242F933F934F935F936F9395
:100660007F938F939F93AF93BF93EF93FF93E0910B
:100670004B01F0914C010995FF91EF91BF91AF9122
:100680009F918F917F916F915F914F913F912F91AA
:100690000F900FBE0F901F9018951F920F920FB6DC
:1006A0000F9211242F933F934F935F936F937F93F8
:1006B0008F939F93AF93BF93EF93FF93E091650167
:1006C000F09166010995FF91EF91BF91AF919F91D4
:1006D0008F917F916F915F914F913F912F910F90EB
:1006E0000FBE0F901F9018951F920F920FB60F928A
:1006F00011242F933F934F935F936F937F938F9327
:100700009F93AF93BF93EF93FF93E0915501F091C7
:1007100056010995FF91EF91BF91AF919F918F91F4
:100720007F916F915F914F913F912F910F900FBEED
:100730000F901F9018951F920F920FB60F921124D1
:100740002F933F934F935F936F937F938F939F93D9
:10075000AF93BF93EF93FF93E0911101F0911201DA
:100760000995FF91EF91BF91AF919F918F917F91EB
:100770006F915F914F913F912F910F900FBE0F900E
:100780001F9018951F920F920FB60F9211242F935E
:100790003F934F935F936F937F938F939F93AF9309
:1007A000BF93EF93FF93E0917101F091720109956E
:1007B000FF91EF91BF91AF919F918F917F916F9139
:1007C0005F914F913F912F910F900FBE0F901F900F
:1007D00018951F920F920FB60F9211242F933F93EB
:1007E0004F935F936F937F938F939F93AF93BF9339
:1007F000EF93FF93E0915101F09152010995FF9120
:10080000EF91BF91AF919F918F917F916F915F9188
:100810004F913F912F910F900FBE0F901F90189501
:100820001F920F920FB60F9211242F933F934F9365
:100830005F936F937F938F939F93AF93BF93EF9348
:10084000FF93E0914F01F09150010995FF91EF91D5
:10085000BF91AF919F918F917F916F915F914F91D8
:100860003F912F910F900FBE0F901F9018951F92E0
:100870000F920FB60F9211242F933F934F935F93D4
:100880006F937F938F939F93AF93BF93EF93FF9358
:10089000E0910F01F09110010995FF91EF91BF9147
:1008A000AF919F918F917F916F915F914F913F9108
:1008B0002F910F900FBE0F901F9018951F920F92BF
:1008C0000FB60F9211242F933F934F935F936F9323
:1008D0007F938F939F93AF93BF93EF93FF93E09199
:1008E0006F01F09170010995FF91EF91BF91AF9168
:1008F0009F918F917F916F915F914F913F912F9138
:100900000F900FBE0F901F9018951F920F920FB669
:100910000F9211242F933F934F935F936F937F9385
:100920008F939F93AF93BF93EF93FF93E0915F01FA
:10093000F09160010995FF91EF91BF91AF919F9167
:100940008F917F916F915F914F913F912F910F9078
:100950000FBE0F901F9018951F920F920FB60F9217
:1009600011242F933F934F935F936F937F938F93B4
:100970009F93AF93BF93EF93FF93E0915B01F0914F
:100980005C010995FF91EF91BF91AF919F918F917C
:100990007F916F915F914F913F912F910F900FBE7B
:1009A0000F901F9018951F920F920FB60F9211245F
:1009B0002F933F934F935F936F937F938F939F9367
:1009C000AF93BF93EF93FF93E0915701F0915801DC
:1009D0000995FF91EF91BF91AF919F918F917F9179
:1009E0006F915F914F913F912F910F900FBE0F909C
:1009F0001F9018951F920F920FB60F9211242F93EC
:100A00003F934F935F936F937F938F939F93AF9396
:100A1000BF93EF93FF93E0914901F0914A0109954B
:100A2000FF91EF91BF91AF919F918F917F916F91C6
:100A30005F914F913F912F910F900FBE0F901F909C
:100A400018951F920F920FB60F9211242F933F9378
:100A50004F935F936F937F938F939F93AF93BF93C6
:100A6000EF93FF93E0916B01F0916C010995FF9179
:100A7000EF91BF91AF919F918F917F916F915F9116
:100A80004F913F912F910F900FBE0F901F9018958F
:100A90001F920F920FB60F9211242F933F934F93F3
:100AA0005F936F937F938F939F93AF93BF93EF93D6
:100AB000FF93E0916901F0916A010995FF91EF912F
:100AC000BF91AF919F918F917F916F915F914F9166
:100AD0003F912F910F900FBE0F901F9018951F926E
:100AE0000F920FB60F9211242F933F934F935F9362
:100AF0006F937F938F939F93AF93BF93EF93FF93E6
:100B0000E0916101F09162010995FF91EF91BF9130
:100B1000AF919F918F917F916F915F914F913F9195
:100B20002F910F900FBE0F901F9018951F920F924C
:100B30000FB60F9211242F933F934F935F936F93B0
:100B40007F938F939F93AF93BF93EF93FF93E09126
:100B50006301F09164010995FF91EF91BF91AF910D
:100B60009F918F917F916F915F914F913F912F91C5
:100B70000F900FBE0F901F9018951F920F920FB6F7
:100B80000F9211242F933F934F935F936F937F9313
:100B90008F939F93AF93BF93EF93FF93E0915D018A
:100BA000F0915E010995FF91EF91BF91AF919F91F7
:100BB0008F917F916F915F914F913F912F910F9006
:100BC0000FBE0F901F9018951F920F920FB60F92A5
:100BD00011242F933F934F935F936F937F938F9342
:100BE0009F93AF93BF93EF93FF93E0914701F091F1
:100BF00048010995FF91EF91BF91AF919F918F911E
:100C00007F916F915F914F913F912F910F900FBE08
:100C10000F901F9018951F920F920FB60F921124EC
:100C20002F933F934F935F936F937F938F939F93F4
:100C3000AF93BF93EF93FF93E0914D01F0914E017D
:100C40000995FF91EF91BF91AF919F918F917F9106
:100C50006F915F914F913F912F910F900FBE0F9029
:100C60001F90189580E091E00E94530087E191E089
:100C70000E94510683E060E44FEF0E94C4000E948E
:100C8000F609C9E3D1E080E06CE32AE030E040E01F
:100C900050E00E945F060E94130ACE010E942C0AB7
:100CA000F2CFFC018081882329F484B595B583684F
:100CB00095BD84BD818180933D0180E008950F93AF
:100CC0001F93962FBA01A9018A019B0102551F406B
:100CD000204030400B33EBE61E07E0E02E07E0E05B
:100CE0003E0718F410923D0164C08A019B01055D26
:100CF0001340204030400D37EBE01E07E0E02E07A8
:100D0000E0E03E0720F421E020933D0158C08A0135
:100D10009B010B5E1140204030400A3EE1E01E077F
:100D2000E0E02E07E0E03E0720F422E020933D01C2
:100D30004CC08A019B010B571040204030400037C7
:100D4000E1E01E07E0E02E07E0E03E0720F423E0AC
:100D500020933D0145C08A019B0100521040204074
:100D600030400B3511052105310520F424E0209396
:100D70003D013CC041505040604070404F315105F2
:100D80006105710520F425E020933D0135C02091D7
:100D90003D012230D1F0233028F4222351F02130BC
:100DA00089F50DC0243011F12430D0F0253051F5F3
:100DB00023C0882339F585B5816085BD25C088238A
:100DC00009F585B5826085BD1FC08330D9F4E0EB9D
:100DD000F0E08081918183609183808381E02FC0E6
:100DE000882381F485B5836085BD0EC0882351F4C6
:100DF00085B5836085BD08C0882321F485B58560ED
:100E000085BD02C08823D1F4692F70E080E090E0B6
:100E10000E94DE0A20E030E048EC52E40E944A0AD8
:100E200020E030E04FE753E40E946C0B0E94B20ACE
:100E3000DC01CB0198BD87BD80E001C081E091E07D
:100E400090933E011F910F91089590913E01913032
:100E500021F40E945F0680E0089581E008958330C8
:100E600018F4813060F403C08330D1F40FC084B52E
:100E700095B5887F907095BD84BD80E0089584B558
:100E800095B5987F95BD84BD80E00895E0EBF0E0D6
:100E900080819181887F90709183808380E0089524
:100EA00081E0089586BD089586B5089584B595B509
:100EB000887F907095BD84BD24B535B5809146017D
:100EC00090E0822B932B95BD84BD089584B595B594
:100ED000887F907095BD84BD0895EF920F931F9306
:100EE000442319F40E9466075DC0E4B5F5B5842B70
:100EF00090E08E2B9F2B95BD84BD4093460126BD6F
:100F0000603189F0613118F4662331F01DC0603220
:100F100081F06033C9F413C084B595B58F7C9070AF
:100F200095BD84BD11C084B595B5806195BD84BD66
:100F30000BC084B595B5806295BD84BD05C084B5F0
:100F400095B5806395BD84BD10E018BD07BD81E0F7
:100F5000E81679F0E81620F082E0E81619F514C0DA
:100F6000109245010E945F02EEE6F0E0808110825F
:100F700019C081E0809345010E944402EEE6F0E052
:100F80008081816080830EC081E0809345018FB7AE
:100F900080688FBFEEE6F0E0808181608083808191
:100FA000826080831F910F91EF900895AC0160E003
:100FB00070E0411551056105710571F080E090E028
:100FC000DC01A89BFECFA89A0196A11DB11D841734
:100FD0009507A607B707A8F30895DC01CB01009792
:100FE000A105B10531F080EF0E9452070E9454071D
:100FF000FDCFA89A0895CF92DF92EF92FF92CF9300
:10100000C82F8FEF809341016091410170E080E033
:1010100090E00E94DE0A6B017C016C2F70E080E0A2
:1010200090E00E94DE0A20E030E048EC52E40E94AA
:101030004A0A9B01AC01C701B6010E946C0B0E94D9
:10104000B20A6093410180914501882319F08130F3
:1010500009F519C00E945607809141010E9452076C
:10106000A89BFECFA89A88B18FEF88B90E94560737
:101070008091410180950E945207A89BFECFA89ABB
:1010800088B118B807C00E9456078091410190E0CE
:1010900098BD87BDCF91FF90EF90DF90CF900895DE
:1010A0008BB180958BB908959093850080938400CF
:1010B000089580918400909185000895E1E8F0E022
:1010C000908180914201892B80830895E1E8F0E0CE
:1010D0008081887F8083089508950895089580937E
:1010E000B20008958091B2000895E1EBF0E08081B4
:1010F000887F8083908180914301892B808308952C
:10110000E1EBF0E08081887F80830895CF920F9398
:101110001F93442319F40E9480085EC0E0EBF0E0C6
:101120009081892B8083E1EBF0E08081842B8083A8
:10113000409343012093B200603481F0613418F48D
:10114000662331F01CC0603879F0603AC1F412C0F7
:10115000E1EBF0E080818C7F808311C0E0EBF0E078
:101160008081806480830BC0E0EBF0E08081806848
:10117000808305C0E0EBF0E08081806A808310E02E
:101180001093B4000093B30081E0C81669F0C8164C
:1011900020F083E0C81601F512C010924401E0E788
:1011A000F0E08081108218C081E0809344010E94A9
:1011B0004402E0E7F0E08081816080830DC081E03F
:1011C000809344010E944402E0E7F0E08081816066
:1011D00080838081836080831F910F91CF900895D9
:1011E0000F931F93CF93DF9300D000D0CDB7DEB71E
:1011F0008C011A8219821B821C82809143018430E7
:10120000F9F0853038F4823089F08330A0F48130F1
:1012100051F507C08630F1F08630B8F0873019F507
:101220001EC08AE38B838AE08C831DC088E08B8399
:101230008CE08C8318C082E08B8388E08C8313C0A1
:1012400081E08B8386E08C830EC081E08B8383E812
:101250008C8309C081E08B8382EC8C8304C081E0A5
:101260008B8380EF8C831A8219822B8149815A816A
:1012700030E0029FC001039F900D129F900D11243A
:1012800048175907C8F48C810E946F08B89BFECF9D
:10129000B89A89819A8101969A8389832B814981A1
:1012A0005A8130E0029FC001039F900D129F900D64
:1012B00011244817590738F30F900F900F900F9093
:1012C000DF91CF911F910F910895CF92DF92EF920E
:1012D000FF92CF93DF9300D0CDB7DEB76B017C01D7
:1012E0001A8219821A82198289819A81A0E0B0E05B
:1012F0008C159D05AE05BF05A0F48EEF0E946F080A
:10130000B89BFECFB89A89819A8101969A83898386
:1013100089819A81A0E0B0E08C159D05AE05BF05DE
:1013200060F30F900F90DF91CF91FF90EF90DF90DF
:10133000CF900895CF92DF92EF92FF92CF93C82F74
:101340008FEF809341016091410170E080E090E077
:101350000E94DE0A6B017C016C2F70E080E090E05F
:101360000E94DE0A20E030E048EC52E40E944A0A83
:101370009B01AC01C701B6010E946C0B0E94B20A2E
:101380006093410180914401882319F0813019F55F
:1013900019C00E947508809141010E946F08B89B96
:1013A000FECFB89A88B18FEF88B90E9475088091F6
:1013B000410180950E946F08B89BFECFB89A88B112
:1013C00018B809C00E9475088091410190E090937F
:1013D000B4008093B300CF91FF90EF90DF90CF9057
:1013E0000895089581E080933F010895CF92EF9290
:1013F0000F93CF938EE191E00E94530089E091E03A
:101400000E944501C82F80E060E247E020E000E054
:10141000EE24CC24C3940E9486088C2FCF910F9188
:10142000EF90CF90089580913F01882399F010921A
:101430003F0182E090E060E170E00E94280182E3D9
:1014400090E00197F1F782E090E060E170E00E94A7
:101450002801089580E008950F931F93CF93DF93A1
:1014600000D000D0CDB7DEB78C0182E061E0AE01E4
:101470004F5F5F4F0E94740129813A81F8013183E7
:1014800020830F900F900F900F90DF91CF911F91BD
:101490000F9108950CD0E6C0DED040F0D5D030F0EA
:1014A00021F45F3F19F0C7C0511110C1CAC0EBD081
:1014B00098F39923C9F35523B1F3951B550BBB271B
:1014C000AA2762177307840738F09F5F5F4F220FC8
:1014D000331F441FAA1FA9F333D00E2E3AF0E0E8C1
:1014E00030D091505040E695001CCAF729D0FE2F0D
:1014F00027D0660F771F881FBB1F2617370748079F
:10150000AB07B0E809F0BB0B802DBF01FF27935854
:101510005F4F2AF09E3F510568F08DC0D7C05F3FF6
:10152000ECF3983EDCF3869577956795B795F7953C
:101530009F5FC9F7880F911D9695879597F9089534
:10154000E1E0660F771F881FBB1F621773078407D0
:10155000BA0720F0621B730B840BBA0BEE1F88F7DF
:10156000E095089598D088F09F5790F0B92F99276B
:10157000B751A0F0D1F0660F771F881F991F1AF09E
:10158000BA95C9F712C0B13081F09FD0B1E008958B
:101590009CC0672F782F8827B85F39F0B93FCCF30C
:1015A000869577956795B395D9F73EF49095809594
:1015B000709561957F4F8F4F9F4F0895E89409C0B4
:1015C00097FB3EF490958095709561957F4F8F4F76
:1015D0009F4F9923A9F0F92F96E9BB279395F6958C
:1015E000879577956795B795F111F8CFFAF4BB0F0A
:1015F00011F460FF1BC06F5F7F4F8F4F9F4F16C06E
:10160000882311F096E911C0772321F09EE8872FF7
:10161000762F05C0662371F096E8862F70E060E0B3
:101620002AF09A95660F771F881FDAF7880F96952C
:10163000879597F9089597F99F6780E870E060E0D3
:1016400008959FEF80EC089500240A94161617065B
:1016500018060906089500240A94121613061406A3
:1016600005060895092E0394000C11F4882352F006
:10167000BB0F40F4BF2B11F460FF04C06F5F7F4FBE
:101680008F4F9F4F089557FD9058440F551F59F0A5
:101690005F3F71F04795880F97FB991F61F09F3F5F
:1016A00079F087950895121613061406551FF2CF88
:1016B0004695F1DF08C0161617061806991FF1CFD8
:1016C00086957105610508940895E894BB276627FF
:1016D0007727CB0197F908950BD0C4CFB5DF28F059
:1016E000BADF18F0952309F0A6CFABCF1124EECFC7
:1016F000CADFA0F3959FD1F3950F50E0551F629F6D
:10170000F001729FBB27F00DB11D639FAA27F00D5A
:10171000B11DAA1F649F6627B00DA11D661F829F81
:101720002227B00DA11D621F739FB00DA11D621F66
:10173000839FA00D611D221F749F3327A00D611D83
:10174000231F849F600D211D822F762F6A2F112465
:101750009F5750408AF0E1F088234AF0EE0FFF1FB8
:10176000BB1F661F771F881F91505040A9F79E3FEF
:10177000510570F060CFAACF5F3FECF3983EDCF3E9
:10178000869577956795B795F795E7959F5FC1F72C
:10179000FE2B880F911D9695879597F90895F894DB
:0217A000FFCF79
:1017A2000340FF02FFFF01FFFF0001C1013E023EB5
:1017B20002F209C10103050005020501050102103B
:0217C200FF0026
:00000001FF
