:100000000C9434000C9477020C949E020C94C5025C
:100010000C94EC020C9413030C943A030C946103BB
:100020000C9488030C94AF030C94D6030C94FD033A
:100030000C9424040C944B040C9472040C949904B6
:100040000C94C0040C94E7040C940E050C94350534
:100050000C945C050C9483050C94AA050C94D105B2
:100060000C94F8050C941F0611241FBECFEFD8E0A6
:10007000DEBFCDBF11E0A0E0B1E0EAE3F2E102C0F3
:1000800005900D92AC31B107D9F711E0ACE1B1E0C8
:1000900001C01D92A936B107E1F70E9446060C94F3
:1000A0001B090C940000FC01009709F45EC081E07C
:1000B00080931C018281882321F08F3F09F057C073
:1000C0002CC08081823089F08330D9F0813009F0F2
:1000D00050C094B181818095892384B980911D019C
:1000E0008E5F80931D0180E0089597B18181809596
:1000F000892387B980911D018D5F80931D0180E068
:1001000008959AB18181809589238AB980911D01D2
:100110008C5F80931D0180E008958081823079F0AA
:100120008330C1F0813039F594B18181892B84B954
:1001300080911D018E5F80931D0180E0089597B12D
:100140008181892B87B980911D018D5F80931D016D
:1001500080E008959AB18181892B8AB980911D012F
:100160008C5F80931D0180E0089586E1089583E20D
:10017000089585E2089585E2089510921C0108957E
:1001800081E080931C01089590911C01913091F5BC
:10019000442319F04F3F81F518C0823051F083306D
:1001A00071F0813059F585B16095682365B984E1B6
:1001B000089588B16095682368B984E108958BB18A
:1001C000609568236BB984E10895823049F08330EB
:1001D00061F08130A9F485B1682B65B984E1089597
:1001E00088B1682B68B984E108958BB1682B6BB92D
:1001F00084E1089588E1089586E2089584E20895EF
:1002000084E2089590911C01913001F5823051F003
:10021000833071F0813091F483B16823FA016083F7
:1002200084E10DC086B16823FA01608384E107C0D0
:1002300089B16823FA01608384E101C084E2FA0194
:100240009081992321F091E09083089588E10895A9
:1002500090911C019130A9F4823049F0833061F013
:10026000813089F485B1682765B984E1089588B142
:10027000682768B984E108958BB168276BB984E178
:10028000089588E1089584E20895CF93DF93EC0107
:100290000E9458028881882319F0813091F409C0A6
:1002A0000E9468028A819B819093120180931101C0
:1002B00008C00E945C028A819B81909364018093B4
:1002C00063018981813061F483E08093810081E062
:1002D00080936F008C819D819093100180930F011A
:1002E00080E0DF91CF9108950F931F93813029F41F
:1002F000E1E8F0E0808183608083613001F161306A
:1003000018F06230D1F52AC080912201909123012A
:10031000A0912401B091250100911E0110911F01AF
:100320002091200130912101800F911FA21FB31F46
:10033000FA0180839183A283B38380E01FC0809100
:10034000220190912301A0912401B0912501FA018D
:1003500080839183A283B38380E010C080911E01CB
:1003600090911F01A0912001B0912101FA01808399
:100370009183A283B38380E001C081E01F910F913C
:100380000895CF93DF93C0918400D0918500609150
:100390002E0170E080E090E02FEF3FEF40E050E072
:1003A0000E94FC08AB01BC01CE01A0E0B0E0840FCC
:1003B000951FA61FB71F80932F0190933001A09324
:1003C0003101B093320110922E018091690080FFBB
:1003D00037C080916900869580FF32C080912F01DF
:1003E00090913001A0913101B091320180932A01A6
:1003F00090932B01A0932C01B0932D0180912A01A1
:1004000090912B01A0912C01B0912D0140912601DA
:10041000509127016091280170912901841B950B4F
:10042000A60BB70B80931E0190931F01A093200190
:10043000B0932101E9E6F0E080818E7F808331C0B6
:1004400080912F0190913001A0913101B091320142
:100450008093260190932701A0932801B09329014E
:100460008091260190912701A0912801B091290146
:1004700040912A0150912B0160912C0170912D0126
:10048000841B950BA60BB70B80932201909323013D
:10049000A0932401B0932501E9E6F0E0808181601A
:1004A0008083DF91CF91089581E080932E0108959C
:1004B0008FB780688FBF089553985B9AE99AE9E6F1
:1004C000F0E08081846080838081886080830895EB
:1004D0005298E89AE9E6F0E080818160808380812B
:1004E0008260808308958FB78F778FBF08951F92A2
:1004F0000F920FB60F9211242F933F934F935F9358
:100500006F937F938F939F93AF93BF93EF93FF93DB
:10051000E0911101F09112010995FF91EF91BF91C6
:10052000AF919F918F917F916F915F914F913F918B
:100530002F910F900FBE0F901F9018951F920F9242
:100540000FB60F9211242F933F934F935F936F93A6
:100550007F938F939F93AF93BF93EF93FF93E0911C
:100560006301F09164010995FF91EF91BF91AF9103
:100570009F918F917F916F915F914F913F912F91BB
:100580000F900FBE0F901F9018951F920F920FB6ED
:100590000F9211242F933F934F935F936F937F9309
:1005A0008F939F93AF93BF93EF93FF93E091490194
:1005B000F0914A010995FF91EF91BF91AF919F9101
:1005C0008F917F916F915F914F913F912F910F90FC
:1005D0000FBE0F901F9018951F920F920FB60F929B
:1005E00011242F933F934F935F936F937F938F9338
:1005F0009F93AF93BF93EF93FF93E0915D01F091D1
:100600005E010995FF91EF91BF91AF919F918F91FD
:100610007F916F915F914F913F912F910F900FBEFE
:100620000F901F9018951F920F920FB60F921124E2
:100630002F933F934F935F936F937F938F939F93EA
:10064000AF93BF93EF93FF93E0914F01F09150016F
:100650000995FF91EF91BF91AF919F918F917F91FC
:100660006F915F914F913F912F910F900FBE0F901F
:100670001F9018951F920F920FB60F9211242F936F
:100680003F934F935F936F937F938F939F93AF931A
:10069000BF93EF93FF93E0914101F09142010995DF
:1006A000FF91EF91BF91AF919F918F917F916F914A
:1006B0005F914F913F912F910F900FBE0F901F9020
:1006C00018951F920F920FB60F9211242F933F93FC
:1006D0004F935F936F937F938F939F93AF93BF934A
:1006E000EF93FF93E0915B01F0915C010995FF911D
:1006F000EF91BF91AF919F918F917F916F915F919A
:100700004F913F912F910F900FBE0F901F90189512
:100710001F920F920FB60F9211242F933F934F9376
:100720005F936F937F938F939F93AF93BF93EF9359
:10073000FF93E0914B01F0914C010995FF91EF91EE
:10074000BF91AF919F918F917F916F915F914F91E9
:100750003F912F910F900FBE0F901F9018951F92F1
:100760000F920FB60F9211242F933F934F935F93E5
:100770006F937F938F939F93AF93BF93EF93FF9369
:10078000E0913F01F09140010995FF91EF91BF91F8
:10079000AF919F918F917F916F915F914F913F9119
:1007A0002F910F900FBE0F901F9018951F920F92D0
:1007B0000FB60F9211242F933F934F935F936F9334
:1007C0007F938F939F93AF93BF93EF93FF93E091AA
:1007D0006701F09168010995FF91EF91BF91AF9189
:1007E0009F918F917F916F915F914F913F912F9149
:1007F0000F900FBE0F901F9018951F920F920FB67B
:100800000F9211242F933F934F935F936F937F9396
:100810008F939F93AF93BF93EF93FF93E091470123
:10082000F09148010995FF91EF91BF91AF919F9190
:100830008F917F916F915F914F913F912F910F9089
:100840000FBE0F901F9018951F920F920FB60F9228
:1008500011242F933F934F935F936F937F938F93C5
:100860009F93AF93BF93EF93FF93E0914501F09176
:1008700046010995FF91EF91BF91AF919F918F91A3
:100880007F916F915F914F913F912F910F900FBE8C
:100890000F901F9018951F920F920FB60F92112470
:1008A0002F933F934F935F936F937F938F939F9378
:1008B000AF93BF93EF93FF93E0910F01F09110017D
:1008C0000995FF91EF91BF91AF919F918F917F918A
:1008D0006F915F914F913F912F910F900FBE0F90AD
:1008E0001F9018951F920F920FB60F9211242F93FD
:1008F0003F934F935F936F937F938F939F93AF93A8
:10090000BF93EF93FF93E0916501F0916601099524
:10091000FF91EF91BF91AF919F918F917F916F91D7
:100920005F914F913F912F910F900FBE0F901F90AD
:1009300018951F920F920FB60F9211242F933F9389
:100940004F935F936F937F938F939F93AF93BF93D7
:10095000EF93FF93E0915501F09156010995FF91B6
:10096000EF91BF91AF919F918F917F916F915F9127
:100970004F913F912F910F900FBE0F901F901895A0
:100980001F920F920FB60F9211242F933F934F9304
:100990005F936F937F938F939F93AF93BF93EF93E7
:1009A000FF93E0915101F09152010995FF91EF9170
:1009B000BF91AF919F918F917F916F915F914F9177
:1009C0003F912F910F900FBE0F901F9018951F927F
:1009D0000F920FB60F9211242F933F934F935F9373
:1009E0006F937F938F939F93AF93BF93EF93FF93F7
:1009F000E0914D01F0914E010995FF91EF91BF916A
:100A0000AF919F918F917F916F915F914F913F91A6
:100A10002F910F900FBE0F901F9018951F920F925D
:100A20000FB60F9211242F933F934F935F936F93C1
:100A30007F938F939F93AF93BF93EF93FF93E09137
:100A40003D01F0913E010995FF91EF91BF91AF916A
:100A50009F918F917F916F915F914F913F912F91D6
:100A60000F900FBE0F901F9018951F920F920FB608
:100A70000F9211242F933F934F935F936F937F9324
:100A80008F939F93AF93BF93EF93FF93E091610197
:100A9000F09162010995FF91EF91BF91AF919F9104
:100AA0008F917F916F915F914F913F912F910F9017
:100AB0000FBE0F901F9018951F920F920FB60F92B6
:100AC00011242F933F934F935F936F937F938F9353
:100AD0009F93AF93BF93EF93FF93E0915F01F091EA
:100AE00060010995FF91EF91BF91AF919F918F9117
:100AF0007F916F915F914F913F912F910F900FBE1A
:100B00000F901F9018951F920F920FB60F921124FD
:100B10002F933F934F935F936F937F938F939F9305
:100B2000AF93BF93EF93FF93E0915701F09158017A
:100B30000995FF91EF91BF91AF919F918F917F9117
:100B40006F915F914F913F912F910F900FBE0F903A
:100B50001F9018951F920F920FB60F9211242F938A
:100B60003F934F935F936F937F938F939F93AF9335
:100B7000BF93EF93FF93E0915901F0915A010995CA
:100B8000FF91EF91BF91AF919F918F917F916F9165
:100B90005F914F913F912F910F900FBE0F901F903B
:100BA00018951F920F920FB60F9211242F933F9317
:100BB0004F935F936F937F938F939F93AF93BF9365
:100BC000EF93FF93E0915301F09154010995FF9148
:100BD000EF91BF91AF919F918F917F916F915F91B5
:100BE0004F913F912F910F900FBE0F901F9018952E
:100BF0001F920F920FB60F9211242F933F934F9392
:100C00005F936F937F938F939F93AF93BF93EF9374
:100C1000FF93E0913B01F0913C010995FF91EF9129
:100C2000BF91AF919F918F917F916F915F914F9104
:100C30003F912F910F900FBE0F901F9018951F920C
:100C40000F920FB60F9211242F933F934F935F9300
:100C50006F937F938F939F93AF93BF93EF93FF9384
:100C6000E0914301F09144010995FF91EF91BF910B
:100C7000AF919F918F917F916F915F914F913F9134
:100C80002F910F900FBE0F901F90189580E091E06C
:100C90000E94530089E391E00E94670683E060E4CC
:100CA0004FEF0E94C40089E091E00E944501C3E338
:100CB000D1E080E064EF2AE030E040E050E00E94C4
:100CC000750680E060E0AE010E947401F2CFFC0185
:100CD0008081882329F484B595B5836895BD84BD4A
:100CE00081818093370180E008950F931F93962FA1
:100CF000BA01A9018A019B0102551F4020403040E2
:100D00000B33EBE61E07E0E02E07E0E03E0718F4A9
:100D1000109237015CC08A019B01055D13402040A1
:100D200030400D37EBE01E07E0E02E07E0E03E0725
:100D300018F4109237014BC08A019B010B5E1140E1
:100D4000204030400A3EE1E01E07E0E02E07E0E0F0
:100D50003E0718F4109237013AC08A019B01065FE2
:100D6000104020403040053F11052105310518F4A1
:100D7000109237012CC08A019B010B571040204074
:100D800030400B3711052105310518F41092370159
:100D90001EC08A019B0100521040204030400B359C
:100DA00011052105310518F41092370110C041508A
:100DB0005040604070404F3151056105710518F495
:100DC0001092370104C020913701222341F4882377
:100DD00031F424B535B5316035BD24BD02C088235A
:100DE000D1F4692F70E080E090E00E940B0820E0D1
:100DF00030E048EC52E40E94770720E030E04FE713
:100E000053E40E9499080E94DF07DC01CB0198BDE2
:100E100087BD80E001C081E091E0909338011F918F
:100E20000F91089590913801913021F40E94750638
:100E300080E0089581E00895833018F4813060F4F3
:100E400003C08330D1F40FC084B595B5887F90700E
:100E500095BD84BD80E0089584B595B5987F95BD16
:100E600084BD80E00895E0EBF0E080819181887F8F
:100E700090709183808380E0089581E0089589E1F6
:100E800091E00E94530089E091E00E94450108959D
:100E900082E090E060E170E04FEF50E00E94C4001B
:100EA00082E090E060E170E040E050E00E94C40029
:100EB00008950F931F93CF93DF9300D000D0CDB749
:100EC000DEB78C0182E061E0AE014F5F5F4F0E94B0
:100ED000740129813A81F801318320830F900F90AA
:100EE0000F900F90DF91CF911F910F9108950CD02B
:100EF000E6C0DED040F0D5D030F021F45F3F19F0ED
:100F0000C7C0511110C1CAC0EBD098F39923C9F3DF
:100F10005523B1F3951B550BBB27AA2762177307FF
:100F2000840738F09F5F5F4F220F331F441FAA1FB3
:100F3000A9F333D00E2E3AF0E0E830D09150504073
:100F4000E695001CCAF729D0FE2F27D0660F771F21
:100F5000881FBB1F261737074807AB07B0E809F003
:100F6000BB0B802DBF01FF2793585F4F2AF09E3F98
:100F7000510568F08DC0D7C05F3FECF3983EDCF3BD
:100F8000869577956795B795F7959F5FC9F7880F11
:100F9000911D9695879597F90895E1E0660F771F63
:100FA000881FBB1F621773078407BA0720F0621BF4
:100FB000730B840BBA0BEE1F88F7E095089598D059
:100FC00088F09F5790F0B92F9927B751A0F0D1F032
:100FD000660F771F881F991F1AF0BA95C9F712C0BC
:100FE000B13081F09FD0B1E008959CC0672F782F79
:100FF0008827B85F39F0B93FCCF386957795679528
:10100000B395D9F73EF490958095709561957F4F93
:101010008F4F9F4F0895E89409C097FB3EF4909539
:101020008095709561957F4F8F4F9F4F9923A9F0C1
:10103000F92F96E9BB279395F69587957795679550
:10104000B795F111F8CFFAF4BB0F11F460FF1BC094
:101050006F5F7F4F8F4F9F4F16C0882311F096E927
:1010600011C0772321F09EE8872F762F05C06623D5
:1010700071F096E8862F70E060E02AF09A95660F8E
:10108000771F881FDAF7880F9695879597F9089547
:1010900097F99F6780E870E060E008959FEF80EC2B
:1010A000089500240A9416161706180609060895CE
:1010B00000240A9412161306140605060895092E34
:1010C0000394000C11F4882352F0BB0F40F4BF2BA3
:1010D00011F460FF04C06F5F7F4F8F4F9F4F0895E3
:1010E00057FD9058440F551F59F05F3F71F04795D9
:1010F000880F97FB991F61F09F3F79F087950895BE
:10110000121613061406551FF2CF4695F1DF08C0DC
:10111000161617061806991FF1CF869571056105F9
:1011200008940895E894BB2766277727CB0197F9A1
:1011300008950BD0C4CFB5DF28F0BADF18F095239F
:1011400009F0A6CFABCF1124EECFCADFA0F3959F55
:10115000D1F3950F50E0551F629FF001729FBB279E
:10116000F00DB11D639FAA27F00DB11DAA1F649F4A
:101170006627B00DA11D661F829F2227B00DA11DFD
:10118000621F739FB00DA11D621F839FA00D611D83
:10119000221F749F3327A00D611D231F849F600DA4
:1011A000211D822F762F6A2F11249F5750408AF0DD
:1011B000E1F088234AF0EE0FFF1FBB1F661F771F69
:1011C000881F91505040A9F79E3F510570F060CFA5
:1011D000AACF5F3FECF3983EDCF386957795679551
:1011E000B795F795E7959F5FC1F7FE2B880F911D87
:1011F0009695879597F90895629FD001739FF001A6
:10120000829FE00DF11D649FE00DF11D929FF00D96
:10121000839FF00D749FF00D659FF00D9927729FCD
:10122000B00DE11DF91F639FB00DE11DF91FBD0158
:0A123000CF0111240895F894FFCFB8
:10123A000340FF02FFFF01FFFF0001C101540254F6
:0C124A0002C1010300020001000210FFBD
:00000001FF
