S00B000070776D2E73726563C5
S11300000C9434000C94B6020C94DD020C9404039A
S11300100C942B030C9452030C9479030C94A003BA
S11300200C94C7030C94EE030C9415040C943C0438
S11300300C9463040C948A040C94B1040C94D804B6
S11300400C94FF040C9426050C944D050C94740533
S11300500C949B050C94C2050C94E9050C941006B1
S11300600C9437060C945E0611241FBECFEFD8E023
S1130070DEBFCDBF11E0A0E0B1E0ECECFBE102C0DB
S113008005900D92A432B107D9F711E0A4E2B1E0D2
S113009001C01D92AB37B107E1F70E9485060C94AD
S11300A0E40D0C940000FC01009709F45EC081E0AB
S11300B0809324018281882321F08F3F09F057C067
S11300C02CC08081823089F08330D9F0813009F0EE
S11300D050C094B181818095892384B98091250190
S11300E08E5F8093250180E0089597B1818180958A
S11300F0892387B9809125018D5F8093250180E054
S113010008959AB18181809589238AB980912501C6
S11301108C5F8093250180E008958081823079F09E
S11301208330C1F0813039F594B18181892B84B950
S1130130809125018E5F8093250180E0089597B119
S11301408181892B87B9809125018D5F8093250159
S113015080E008959AB18181892B8AB98091250123
S11301608C5F8093250180E0089586E1089583E201
S1130170089585E2089585E2089510922401089572
S113018081E080932401089590912401913091F5A8
S1130190442319F04F3F81F518C0823051F0833069
S11301A071F0813059F585B16095682365B984E1B2
S11301B0089588B16095682368B984E108958BB186
S11301C0609568236BB984E10895823049F08330E7
S11301D061F08130A9F485B1682B65B984E1089593
S11301E088B1682B68B984E108958BB1682B6BB929
S11301F084E1089588E1089586E2089584E20895EB
S113020084E2089590912401913001F5823051F0F7
S1130210833071F0813091F483B16823FA016083F3
S113022084E10DC086B16823FA01608384E107C0CC
S113023089B16823FA01608384E101C084E2FA0190
S11302409081992321F091E09083089588E10895A5
S1130250909124019130A9F4823049F0833061F007
S1130260813089F485B1682765B984E1089588B13E
S1130270682768B984E108958BB168276BB984E174
S1130280089588E1089584E208950E940B0C0E9469
S11302908A060E94320808950E94280C86E291E0A2
S11302A00E94410C8091260190912701893C91057F
S11302B010F0109228019C01275930402233310557
S11302C018F421E0209328019C0125563040223364
S11302D0310518F422E0209328019C012353304077
S11302E02233310518F423E0209328019C012F5177
S11302F030402431310518F424E0209328019C0176
S1130300255130402A30310518F425E02093280186
S113031001978431910518F486E080932801809137
S113032028010E949806809128010E9437080895A8
S1130330CF93DF93EC010E9497028881882319F000
S1130340813091F409C00E94A7028A819B81909315
S113035017018093160108C00E949B028A819B8129
S113036090937601809375018981813061F485E0F1
S11303708093810081E080936F008C819D819093B4
S113038013018093120180E0DF91CF9108950F93C0
S11303901F93813029F4E1E8F0E080818560808357
S11303A0613001F1613018F06230D1F52AC08091DA
S11303B02D0190912E01A0912F01B0913001009157
S11303C0290110912A0120912B0130912C01800FD9
S11303D0911FA21FB31FFA0180839183A283B38369
S11303E080E01FC080912D0190912E01A0912F01DA
S11303F0B0913001FA0180839183A283B38380E0BA
S113040010C08091290190912A01A0912B01B091F3
S11304102C01FA0180839183A283B38380E001C01D
S113042081E01F910F91089580918400909185003F
S1130430A0E0B0E080933A0190933B01A0933C018B
S1130440B0933D01109239018091690080FF37C05B
S113045080916900869580FF32C080913A01909125
S11304603B01A0913C01B0913D01809335019093F3
S11304703601A0933701B0933801809135019091F2
S11304803601A0913701B09138014091310150916A
S113049032016091330170913401841B950BA60BDA
S11304A0B70B8093290190932A01A0932B01B09359
S11304B02C01E9E6F0E080818E7F808308958091AD
S11304C03A0190913B01A0913C01B0913D01809390
S11304D0310190933201A0933301B09334018091A0
S11304E0310190913201A0913301B09134014091D6
S11304F03501509136016091370170913801841BA8
S1130500950BA60BB70B80932D0190932E01A0930E
S11305102F01B0933001E9E6F0E0808181608083AF
S1130520089581E0809339010E94280C08958FB7C3
S113053080688FBF089553985B9AE99AE9E6F0E0E2
S1130540808184608083808188608083089552984C
S1130550E89AE9E6F0E080818160808380818260AE
S1130560808308958FB78F778FBF08951F920F925E
S11305700FB60F9211242F933F934F935F936F9372
S11305807F938F939F93AF93BF93EF93FF93E091E8
S11305901601F09117010995FF91EF91BF91AF9169
S11305A09F918F917F916F915F914F913F912F9187
S11305B00F900FBE0F901F9018951F920F920FB6B9
S11305C00F9211242F933F934F935F936F937F93D5
S11305D08F939F93AF93BF93EF93FF93E091750134
S11305E0F09176010995FF91EF91BF91AF919F91A1
S11305F08F917F916F915F914F913F912F910F90C8
S11306000FBE0F901F9018951F920F920FB60F9266
S113061011242F933F934F935F936F937F938F9303
S11306209F93AF93BF93EF93FF93E0915B01F0919E
S11306305C010995FF91EF91BF91AF919F918F91CB
S11306407F916F915F914F913F912F910F900FBECA
S11306500F901F9018951F920F920FB60F921124AE
S11306602F933F934F935F936F937F938F939F93B6
S1130670AF93BF93EF93FF93E0916F01F0917001FB
S11306800995FF91EF91BF91AF919F918F917F91C8
S11306906F915F914F913F912F910F900FBE0F90EB
S11306A01F9018951F920F920FB60F9211242F933B
S11306B03F934F935F936F937F938F939F93AF93E6
S11306C0BF93EF93FF93E0916101F091620109956B
S11306D0FF91EF91BF91AF919F918F917F916F9116
S11306E05F914F913F912F910F900FBE0F901F90EC
S11306F018951F920F920FB60F9211242F933F93C8
S11307004F935F936F937F938F939F93AF93BF9315
S1130710EF93FF93E0915301F09154010995FF91F8
S1130720EF91BF91AF919F918F917F916F915F9165
S11307304F913F912F910F900FBE0F901F901895DE
S11307401F920F920FB60F9211242F933F934F9342
S11307505F936F937F938F939F93AF93BF93EF9325
S1130760FF93E0916D01F0916E010995FF91EF9176
S1130770BF91AF919F918F917F916F915F914F91B5
S11307803F912F910F900FBE0F901F9018951F92BD
S11307900F920FB60F9211242F933F934F935F93B1
S11307A06F937F938F939F93AF93BF93EF93FF9335
S11307B0E0915D01F0915E010995FF91EF91BF9188
S11307C0AF919F918F917F916F915F914F913F91E5
S11307D02F910F900FBE0F901F9018951F920F929C
S11307E00FB60F9211242F933F934F935F936F9300
S11307F07F938F939F93AF93BF93EF93FF93E09176
S11308001401F09115010995FF91EF91BF91AF91FA
S11308109F918F917F916F915F914F913F912F9114
S11308200F900FBE0F901F9018951F920F920FB646
S11308300F9211242F933F934F935F936F937F9362
S11308408F939F93AF93BF93EF93FF93E0917901BD
S1130850F0917A010995FF91EF91BF91AF919F912A
S11308608F917F916F915F914F913F912F910F9055
S11308700FBE0F901F9018951F920F920FB60F92F4
S113088011242F933F934F935F936F937F938F9391
S11308909F93AF93BF93EF93FF93E0915901F0912E
S11308A05A010995FF91EF91BF91AF919F918F915B
S11308B07F916F915F914F913F912F910F900FBE58
S11308C00F901F9018951F920F920FB60F9211243C
S11308D02F933F934F935F936F937F938F939F9344
S11308E0AF93BF93EF93FF93E0915701F0915801B9
S11308F00995FF91EF91BF91AF919F918F917F9156
S11309006F915F914F913F912F910F900FBE0F9078
S11309101F9018951F920F920FB60F9211242F93C8
S11309203F934F935F936F937F938F939F93AF9373
S1130930BF93EF93FF93E0911201F0911301099596
S1130940FF91EF91BF91AF919F918F917F916F91A3
S11309505F914F913F912F910F900FBE0F901F9079
S113096018951F920F920FB60F9211242F933F9355
S11309704F935F936F937F938F939F93AF93BF93A3
S1130980EF93FF93E0917701F09178010995FF913E
S1130990EF91BF91AF919F918F917F916F915F91F3
S11309A04F913F912F910F900FBE0F901F9018956C
S11309B01F920F920FB60F9211242F933F934F93D0
S11309C05F936F937F938F939F93AF93BF93EF93B3
S11309D0FF93E0916701F09168010995FF91EF9110
S11309E0BF91AF919F918F917F916F915F914F9143
S11309F03F912F910F900FBE0F901F9018951F924B
S1130A000F920FB60F9211242F933F934F935F933E
S1130A106F937F938F939F93AF93BF93EF93FF93C2
S1130A20E0916301F09164010995FF91EF91BF9109
S1130A30AF919F918F917F916F915F914F913F9172
S1130A402F910F900FBE0F901F9018951F920F9229
S1130A500FB60F9211242F933F934F935F936F938D
S1130A607F938F939F93AF93BF93EF93FF93E09103
S1130A705F01F09160010995FF91EF91BF91AF91F2
S1130A809F918F917F916F915F914F913F912F91A2
S1130A900F900FBE0F901F9018951F920F920FB6D4
S1130AA00F9211242F933F934F935F936F937F93F0
S1130AB08F939F93AF93BF93EF93FF93E091510173
S1130AC0F09152010995FF91EF91BF91AF919F91E0
S1130AD08F917F916F915F914F913F912F910F90E3
S1130AE00FBE0F901F9018951F920F920FB60F9282
S1130AF011242F933F934F935F936F937F938F931F
S1130B009F93AF93BF93EF93FF93E0917301F091A1
S1130B1074010995FF91EF91BF91AF919F918F91CE
S1130B207F916F915F914F913F912F910F900FBEE5
S1130B300F901F9018951F920F920FB60F921124C9
S1130B402F933F934F935F936F937F938F939F93D1
S1130B50AF93BF93EF93FF93E0917101F091720112
S1130B600995FF91EF91BF91AF919F918F917F91E3
S1130B706F915F914F913F912F910F900FBE0F9006
S1130B801F9018951F920F920FB60F9211242F9356
S1130B903F934F935F936F937F938F939F93AF9301
S1130BA0BF93EF93FF93E0916901F0916A01099576
S1130BB0FF91EF91BF91AF919F918F917F916F9131
S1130BC05F914F913F912F910F900FBE0F901F9007
S1130BD018951F920F920FB60F9211242F933F93E3
S1130BE04F935F936F937F938F939F93AF93BF9331
S1130BF0EF93FF93E0916B01F0916C010995FF91E4
S1130C00EF91BF91AF919F918F917F916F915F9180
S1130C104F913F912F910F900FBE0F901F901895F9
S1130C201F920F920FB60F9211242F933F934F935D
S1130C305F936F937F938F939F93AF93BF93EF9340
S1130C40FF93E0916501F09166010995FF91EF91A1
S1130C50BF91AF919F918F917F916F915F914F91D0
S1130C603F912F910F900FBE0F901F9018951F92D8
S1130C700F920FB60F9211242F933F934F935F93CC
S1130C806F937F938F939F93AF93BF93EF93FF9350
S1130C90E0914F01F09150010995FF91EF91BF91BF
S1130CA0AF919F918F917F916F915F914F913F9100
S1130CB02F910F900FBE0F901F9018951F920F92B7
S1130CC00FB60F9211242F933F934F935F936F931B
S1130CD07F938F939F93AF93BF93EF93FF93E09191
S1130CE05501F09156010995FF91EF91BF91AF9194
S1130CF09F918F917F916F915F914F913F912F9130
S1130D000F900FBE0F901F9018950E9445010E94EE
S1130D104C01FDCF80E091E00E94530083E060E449
S1130D204FEF0E94C4008AE191E00E9431070895C8
S1130D30CF93C82F80E060E52AE030E040E050E047
S1130D400E943F0780914701882349F080913E012A
S1130D5090913F01019690933F0180933E01C330EF
S1130D6089F1C43028F4C13071F0C230E8F409C00C
S1130D70C53009F447C0C530A8F1C63009F062C0D7
S1130D8051C080E06CC08AE08093400180913E01B4
S1130D9090913F018436910509F056C010923F01AD
S1130DA010923E0180E05BC080913E0190913F0132
S1130DB08233910509F04AC010923F0110923E011E
S1130DC080E04DC08EE18093400180913E0190917E
S1130DD03F0189319105E1F510923F0110923E01E6
S1130DE080E03DC082E38093400180913E01909178
S1130DF03F018C30910571F510923F0110923E0134
S1130E0080E02DC086E48093400180913E01909162
S1130E103F018730910501F510923F0110923E0188
S1130E2080E01DC08AE58093400180913E0190914D
S1130E303F018230910591F410923F0110923E01DE
S1130E4080E00DC081E00BC080E009C080E007C0F5
S1130E5080E005C080E003C080E001C080E0CF9165
S1130E600895FC018081882329F484B595B58368AD
S1130E7095BD84BD81818093410180E008950F93E5
S1130E801F93962FBA01A9018A019B0102551F40A5
S1130E90204030400B33EBE61E07E0E02E07E0E095
S1130EA03E0718F41092410164C08A019B01055D5C
S1130EB01340204030400D37EBE01E07E0E02E07E2
S1130EC0E0E03E0720F421E02093410158C08A016C
S1130ED09B010B5E1140204030400A3EE1E01E07BA
S1130EE0E0E02E07E0E03E0720F422E020934101F9
S1130EF04CC08A019B010B57104020403040003702
S1130F00E1E01E07E0E02E07E0E03E0720F423E0E6
S1130F102093410145C08A019B01005210402040AA
S1130F2030400B3511052105310520F424E02093D0
S1130F3041013CC041505040604070404F31510528
S1130F406105710520F425E02093410135C020910D
S1130F5041012230D1F0233028F4222351F02130F2
S1130F6089F50DC0243011F12430D0F0253051F52D
S1130F7023C0882339F585B5816085BD25C08823C4
S1130F8009F585B5826085BD1FC08330D9F4E0EBD7
S1130F90F0E08081918183609183808381E02FC020
S1130FA0882381F485B5836085BD0EC0882351F400
S1130FB085B5836085BD08C0882321F485B5856027
S1130FC085BD02C08823D1F4692F70E080E090E0F1
S1130FD00E94F30C20E030E048EC52E40E945F0CE5
S1130FE020E030E04FE753E40E94810D0E94C70CDB
S1130FF0DC01CB0198BD87BD80E001C081E091E0B8
S1131000909342011F910F91089590914201913064
S113101021F40E943F0780E0089581E00895833021
S113102018F4813060F403C08330D1F40FC084B568
S113103095B5887F907095BD84BD80E0089584B592
S113104095B5987F95BD84BD80E00895E0EBF0E010
S113105080819181887F90709183808380E008955E
S113106081E0089583E091E00E94530008959091F7
S11310704701992351F020914301309144012F5F9E
S11310803F4F3093440120934301833009F470C0EF
S1131090843030F48130D1F0823008F040C00AC08E
S11310A0853009F4B7C0853008F48BC0863009F068
S11310B003C1D9C082E068E040E00E94C40083E03C
S11310C060E840E00E94C40080E0089580914301FC
S11310D0909144018B32910560F482E068E040E035
S11310E00E94C40083E060E840E00E94C40080E005
S11310F008958B978531910560F482E068E04FEFA5
S11311000E94C40083E060E84FEF0E94C40080E0C6
S11311100895109244011092430180E00895809153
S11311204301909144018532910560F482E068E0C6
S113113040E00E94C40083E060E840E00E94C400F4
S113114080E0089585978B31910560F482E068E032
S11311504FEF0E94C40083E060E84FEF0E94C40098
S113116080E00895109244011092430180E00895B4
S113117080914301909144018F31910560F482E0A4
S113118068E040E00E94C40083E060E840E00E9420
S1131190C40080E008954F978132910560F482E0A5
S11311A068E04FEF0E94C40083E060E84FEF0E94C4
S11311B0C40080E00895109244011092430180E03D
S11311C0089580914301909144018931910560F41F
S11311D082E068E040E00E94C40083E060E840E010
S11311E00E94C40080E0089549978732910560F415
S11311F082E068E04FEF0E94C40083E060E84FEFB4
S11312000E94C40080E008951092440110924301AA
S113121080E00895809143019091440183319105C8
S113122060F482E068E040E00E94C40083E060E88B
S113123040E00E94C40080E0089543978D329105F8
S113124060F482E068E04FEF0E94C40083E060E84D
S11312504FEF0E94C40080E0089510924401109260
S1131260430180E0089580914301909144018D30C1
S1131270910560F482E068E040E00E94C40083E0ED
S113128060E840E00E94C40080E008950D97833335
S1131290910560F482E068E04FEF0E94C40083E0AF
S11312A060E84FEF0E94C40080E00895109244016A
S11312B01092430180E0089581E0089586BD089569
S11312C086B5089584B595B5887F907095BD84BD25
S11312D024B535B580914E0190E0822B932B95BDBA
S11312E084BD089584B595B5887F907095BD84BDFF
S11312F00895EF920F931F93442319F40E947209E7
S11313005DC0E4B5F5B5842B90E08E2B9F2B95BD85
S113131084BD40934E0126BD603189F0613118F4DB
S1131320662331F01DC0603281F06033C9F413C00C
S113133084B595B58F7C907095BD84BD11C084B57E
S113134095B5806195BD84BD0BC084B595B58062AB
S113135095BD84BD05C084B595B5806395BD84BD38
S113136010E018BD07BD81E0E81679F0E81620F01A
S113137082E0E81619F514C010924D010E94B202E1
S1131380EEE6F0E08081108219C081E080934D0187
S11313900E949702EEE6F0E08081816080830EC0B7
S11313A081E080934D018FB780688FBFEEE6F0E057
S11313B08081816080838081826080831F910F910E
S11313C0EF900895AC0160E070E0411551056105AE
S11313D0710571F080E090E0DC01A89BFECFA89A33
S11313E00196A11DB11D84179507A607B707A8F399
S11313F00895DC01CB010097A105B10531F080EF20
S11314000E945E090E946009FDCFA89A0895CF92B8
S1131410DF92EF92FF92CF93C82F8FEF8093490111
S11314206091490170E080E090E00E94F30C6B0150
S11314307C016C2F70E080E090E00E94F30C20E0CF
S113144030E048EC52E40E945F0C9B01AC01C70100
S1131450B6010E94810D0E94C70C609349018091DE
S11314604D01882319F0813009F519C00E946209E1
S1131470809149010E945E09A89BFECFA89A88B179
S11314808FEF88B90E9462098091490180950E947A
S11314905E09A89BFECFA89A88B118B807C00E941D
S11314A062098091490190E098BD87BDCF91FF907A
S11314B0EF90DF90CF9008958BB180958BB908950C
S11314C09093850080938400089580918400909186
S11314D085000895E1E8F0E0908180914A01892B2C
S11314E080830895E1E8F0E08081887F8083089517
S11314F00895089508958093B20008958091B200EC
S11315000895E1EBF0E08081887F80839081809171
S11315104B01892B80830895E1EBF0E08081887F83
S113152080830895CF920F931F93442319F40E944C
S11315308C0A5EC0E0EBF0E09081892B8083E1EBC4
S1131540F0E08081842B808340934B012093B20090
S1131550603481F0613418F4662331F01CC06038C3
S113156079F0603AC1F412C0E1EBF0E080818C7F45
S1131570808311C0E0EBF0E08081806480830BC045
S1131580E0EBF0E080818068808305C0E0EBF0E070
S11315908081806A808310E01093B4000093B300CC
S11315A081E0C81669F0C81620F083E0C81601F57A
S11315B012C010924C01E0E7F0E08081108218C064
S11315C081E080934C010E949702E0E7F0E0808183
S11315D0816080830DC081E080934C010E9497025A
S11315E0E0E7F0E080818160808380818360808394
S11315F01F910F91CF9008950F931F93CF93DF9373
S113160000D000D0CDB7DEB78C011A8219821B82BC
S11316101C8280914B018430F9F0853038F482309B
S113162089F08330A0F4813051F507C08630F1F0A1
S11316308630B8F0873019F51EC08AE38B838AE0C0
S11316408C831DC088E08B838CE08C8318C082E07F
S11316508B8388E08C8313C081E08B8386E08C834A
S11316600EC081E08B8383E88C8309C081E08B8387
S113167082EC8C8304C081E08B8380EF8C831A829C
S113168019822B8149815A8130E0029FC001039F56
S1131690900D129F900D112448175907C8F48C819E
S11316A00E947B0AB89BFECFB89A89819A810196E1
S11316B09A8389832B8149815A8130E0029FC0013A
S11316C0039F900D129F900D11244817590738F36A
S11316D00F900F900F900F90DF91CF911F910F916A
S11316E00895CF92DF92EF92FF92CF93DF9300D0D1
S11316F0CDB7DEB76B017C011A8219821A82198276
S113170089819A81A0E0B0E08C159D05AE05BF05E6
S1131710A0F48EEF0E947B0AB89BFECFB89A898111
S11317209A8101969A83898389819A81A0E0B0E0A5
S11317308C159D05AE05BF0560F30F900F90DF91EA
S1131740CF91FF90EF90DF90CF900895CF92DF92EA
S1131750EF92FF92CF93C82F8FEF8093490160914E
S1131760490170E080E090E00E94F30C6B017C0181
S11317706C2F70E080E090E00E94F30C20E030E0F9
S113178048EC52E40E945F0C9B01AC01C701B60116
S11317900E94810D0E94C70C6093490180914C0105
S11317A0882319F0813019F519C00E94810A8091AB
S11317B049010E947B0AB89BFECFB89A88B18FEF8B
S11317C088B90E94810A8091490180950E947B0A10
S11317D0B89BFECFB89A88B118B809C00E94810A94
S11317E08091490190E09093B4008093B300CF912D
S11317F0FF90EF90DF90CF900895089581E080935B
S113180047018091450190914601019690934601CC
S1131810809345010895CF92EF920F93CF9381E285
S113182091E00E9453008CE091E00E949801C82F3F
S113183080E060E247E020E000E0EE24CC24C394A2
S11318400E94920A8C2FCF910F91EF90CF90089520
S113185080914701882399F01092470183E090E03A
S113186062E070E00E94280182E390E00197F1F7C2
S113187083E090E062E070E00E942801089580E037
S113188008950F931F93CF93DF9300D000D0CDB76B
S1131890DEB78C0182E061E0AE014F5F5F4F0E94D2
S11318A0C70129813A81F801318320830F900F9079
S11318B00F900F90DF91CF911F910F9108950CD04D
S11318C0E6C0DED040F0D5D030F021F45F3F19F00F
S11318D0C7C0511110C1CAC0EBD098F39923C9F302
S11318E05523B1F3951B550BBB27AA276217730722
S11318F0840738F09F5F5F4F220F331F441FAA1FD6
S1131900A9F333D00E2E3AF0E0E830D09150504095
S1131910E695001CCAF729D0FE2F27D0660F771F43
S1131920881FBB1F261737074807AB07B0E809F025
S1131930BB0B802DBF01FF2793585F4F2AF09E3FBA
S1131940510568F08DC0D7C05F3FECF3983EDCF3DF
S1131950869577956795B795F7959F5FC9F7880F33
S1131960911D9695879597F90895E1E0660F771F85
S1131970881FBB1F621773078407BA0720F0621B16
S1131980730B840BBA0BEE1F88F7E095089598D07B
S113199088F09F5790F0B92F9927B751A0F0D1F054
S11319A0660F771F881F991F1AF0BA95C9F712C0DE
S11319B0B13081F09FD0B1E008959CC0672F782F9B
S11319C08827B85F39F0B93FCCF38695779567954A
S11319D0B395D9F73EF490958095709561957F4FB6
S11319E08F4F9F4F0895E89409C097FB3EF490955C
S11319F08095709561957F4F8F4F9F4F9923A9F0E4
S1131A00F92F96E9BB279395F69587957795679572
S1131A10B795F111F8CFFAF4BB0F11F460FF1BC0B6
S1131A206F5F7F4F8F4F9F4F16C0882311F096E949
S1131A3011C0772321F09EE8872F762F05C06623F7
S1131A4071F096E8862F70E060E02AF09A95660FB0
S1131A50771F881FDAF7880F9695879597F9089569
S1131A6097F99F6780E870E060E008959FEF80EC4D
S1131A70089500240A9416161706180609060895F0
S1131A8000240A9412161306140605060895092E56
S1131A900394000C11F4882352F0BB0F40F4BF2BC5
S1131AA011F460FF04C06F5F7F4F8F4F9F4F089505
S1131AB057FD9058440F551F59F05F3F71F04795FB
S1131AC0880F97FB991F61F09F3F79F087950895E0
S1131AD0121613061406551FF2CF4695F1DF08C0FF
S1131AE0161617061806991FF1CF8695710561051C
S1131AF008940895E894BB2766277727CB0197F9C4
S1131B0008950BD0C4CFB5DF28F0BADF18F09523C1
S1131B1009F0A6CFABCF1124EECFCADFA0F3959F77
S1131B20D1F3950F50E0551F629FF001729FBB27C0
S1131B30F00DB11D639FAA27F00DB11DAA1F649F6C
S1131B406627B00DA11D661F829F2227B00DA11D1F
S1131B50621F739FB00DA11D621F839FA00D611DA5
S1131B60221F749F3327A00D611D231F849F600DC6
S1131B70211D822F762F6A2F11249F5750408AF0FF
S1131B80E1F088234AF0EE0FFF1FBB1F661F771F8B
S1131B90881F91505040A9F79E3F510570F060CFC7
S1131BA0AACF5F3FECF3983EDCF386957795679573
S1131BB0B795F795E7959F5FC1F7FE2B880F911DA9
S10F1BC09695879597F90895F894FFCF47
S1131BCC03C0FF0208FF02FFFF01FFFF0001140224
S1131BDC91029102FE0B1402030500050205010596
S1071BEC010302FFEC
S9030000FC
